:1000000000800020B1010000DD010000DD010000E2
:10001000DD010000DD010000DD010000DD01000068
:10002000DD010000DD010000DD010000DD01000058
:10003000DD010000DD010000DD010000DD01000048
:1000400009170000DD010000DD010000DD010000F6
:10005000DD010000DD010000DD010000D92100000C
:10006000DD010000DD010000DD010000DD01000018
:10007000DD010000DD010000DD010000DD01000008
:10008000DD010000DD010000DD010000DD010000F8
:10009000DD010000DD010000DD010000DD010000E8
:1000A000B12A0000DD01000029270000DD01000069
:1000B000DD010000DD010000DD010000DD010000C8
:1000C000DD010000DD010000DD010000DD010000B8
:1000D000DD010000DD010000DD010000DD010000A8
:1000E00010B5054C237833B9044B13B10448AFF372
:1000F00000800123237010BD740000200000000068
:10010000502D0000084B10B51BB108480849AFF34B
:1001100000800848036803B910BD074B002BFBD0D3
:10012000BDE81040184700BF00000000502D00003F
:10013000780000207000002000000000154B002B0C
:1001400008BF134B9D46A3F5803A00218B460F460E
:100150001348144A121A02F027FD0F4B002B00D04F
:1001600098470E4B002B00D0984700200021040038
:100170000D000D48002802D00C48AFF3008002F0BB
:10018000EDFC2000290002F035F902F0D3FC00BF9D
:1001900000000800008000200000000000000000B7
:1001A00074000020D84F0020000000000000000074
:1001B000064880470649074A074B9A42BEBF51F896
:1001C000040B42F8040BF8E7FFF7B8FF5D030000EB
:1001D0005C2D00000000002074000020FEE700BF3E
:1001E00080B400AF044BDB6C1B0EDBB21846BD467F
:1001F0005DF8047B704700BFB081E00F80B582B02E
:1002000000AF00F01FF87860074B5B6803F00F0346
:100210001A467B68D3407B60044A7B6813607B6826
:1002200018460837BD4680BD00800C40C400002041
:1002300080B400AF024B1846BD465DF8047B7047A2
:10024000006CDC0280B582B000AF334BDB6A03F494
:100250007053B3F5805F0AD0B3F5005F03D0B3F5F8
:10026000006F08D00BE02D4B1B687B6047E04FF41C
:1002700000437B6043E02A4B1B687B603FE0264BDA
:10028000DB6803F4E063B3F5007F1BD0B3F5007FB8
:1002900005D8002B24D0B3F5807F16D02BE0B3F522
:1002A000806F09D0B3F5A06F03D0B3F5407F06D0BF
:1002B00021E01C4B7B6021E01B4B7B601EE01B4B55
:1002C0007B601BE01A4B7B6018E0FFF789FF034659
:1002D000122B02D9174B7B6010E0174B7B600DE0AF
:1002E000FFF77EFF0346122B02D9144B7B6005E01B
:1002F000134B7B6002E000237B6000BF00BF064B16
:100300001B6803F4E0339B0B01337A68B2FBF3F311
:1003100018460837BD4680BD00800C400400002010
:1003200000000020003FAB01406F4001809FD500DE
:10033000C0D8A70040B56400C0CF6A00804F12004B
:1003400040420F0080B400AF034B1B681846BD4607
:100350005DF8047B704700BF0000002080B400AF50
:10036000BD465DF8047B704780B400AF4FF4004396
:100370001846BD465DF8047B704700BF80B400AFEF
:100380004FF47A731846BD465DF8047B704700BF92
:1003900080B400AF034B1B681846BD465DF8047B74
:1003A000704700BF0400002080B487B000AF7860C1
:1003B0000B46FB701346BB70BB78002B04D0102398
:1003C000FB603E4B3B6103E00023FB603C4B3B6129
:1003D0007B685A6B3B691340BB6000237B61FB78F1
:1003E000062B5BD801A252F823F000BF09040000DD
:1003F000270400004B040000690400009D04000075
:100400009D0400008D0400002E4B5B6803F4FE4346
:100410007A6913437B612B4B5B6803F07F037A6936
:1004200013437B613DE0274B5B6803F0FE431B0EEB
:100430001B027A6913437B61224B5B6803F4FE0362
:100440001B0C7A6913437B612BE01E4B9B6803F402
:10045000FE437A6913437B611A4B9B6803F07F0369
:100460007A6913437B611CE0164B9B6803F0FE43E3
:100470001B0E1B027A6913437B61124B9B6803F4CA
:10048000FE031B0C7A6913437B610AE00D4BDB68AA
:1004900003F07F037A6913437B6102E000237B61F1
:1004A00000BFFB687A699A40BB681A437B685A634D
:1004B0001C37BD465DF8047B704700BFFFFF80809E
:1004C0008080FFFFB081E00F80B584B000AF78601E
:1004D00039603B681B79FB727B682B4A934204D0DE
:1004E0002A484FF4BC7100F011F9FB7A002B06D1B9
:1004F0002748002100F0A8F80346FB721CE02448BE
:10050000002100F0A1F803461A46FB7A934204D278
:100510001E484FF4C37100F0F9F84FF4FA4000217F
:1005200000F092F803461A46FB7A934204D9174822
:1005300040F2871100F0EAF87B680A225A603B68B3
:100540001B781A063B68DB781B0403F4FE031A438E
:10055000FB7A1B0203F4FE431A433B685B781B01E2
:1005600013433A6892781343FB603B685B79002B36
:1005700003D0FB6843F00803FB607B68FA681A60ED
:100580001037BD4680BD00BF00200040D42B0000C6
:10059000405DC60080B584B000AF786039607B688C
:1005A000274A934204D0274840F2593100F0AEF870
:1005B0007B6802225A603B689B7878681946002263
:1005C000FFF7F2FE3B681B781A073B685B781B0558
:1005D0001A433B681B791B0213431A463B68DB78BE
:1005E0001B011343FB603B689B79002B03D0FB6826
:1005F00043F08073FB603B68DB79002B03D0FB6822
:1006000043F00403FB603B685B79002B03D0FB687D
:1006100043F00203FB603B681B7A002B03D0FB68AE
:1006200043F00103FB603B689B781B041A46FB68A0
:100630001343FB607B68FA68DA601037BD4680BD03
:1006400000200040D42B000080B584B000AF78605B
:1006500039607B68134A934202D9124B7B6006E0F3
:100660007B68B3F5FA4F02D24FF4FA437B603B68E4
:10067000002B03D10C4800F0BFFC38603A687B685F
:1006800013445A1E7B68B2FBF3F3FB60FB68002B3C
:1006900002D0FB68013BFB60FB68DBB218461037F9
:1006A000BD4680BD405DC6004081040080B582B07B
:1006B00000AF78607B68002B08D1114800F09CFCEB
:1006C00078607B68002B01D101237B607B680D4A39
:1006D000934201D90B4B7B607B6803F5742303F2D3
:1006E0003F237B607B68084AA2FB03239B0C7B6053
:1006F0007B68DBB2013BDBB218460837BD4680BDE4
:10070000408104000048E80183DE1B4380B483B0CD
:1007100000AF78603960FEE780B487B000AFF86062
:10072000B9607A60FB6803F10473DA00BB681344B4
:100730009B007B617B697A681A601C37BD465DF857
:10074000047B704780B485B000AF786039607B6807
:1007500003F10473DA003B6813449B00FB60FB6801
:100760001B6818461437BD465DF8047B704700BF10
:1007700080B584B000AF78607B68002B03D07B68C5
:10078000B3F5004F04D9084840F2C941FFF7BEFF56
:100790007B68B3FA83F3C3F11F03FB60FB68184661
:1007A0001037BD4680BD00BFE82B000080B400AF0D
:1007B000044BDB6C1B0EDBB21846BD465DF8047BB8
:1007C000704700BFB081E00F80B400AF054BDB6C19
:1007D00003F47F031B0CDBB21846BD465DF8047BB7
:1007E000704700BFB081E00F80B582B000AFFFF767
:1007F000EBFF03464A2B04D0792B02D0482B21D0A3
:1008000022E0164B1B699BB203F03F039BB21B0215
:10081000FB80124B9B6903F0F0039AB2FB881343F1
:10082000FB800E4BDB6903F0F0031B099AB2FB88D7
:100830001343FB80FB88B3F5017F01D3084B08E02D
:10084000084B06E0074B04E007489A21FFF75EFFDC
:10085000002318460837BD4680BD00BFD0FF0FE01B
:1008600000366E010048E8013C2C000080B584B0E1
:1008700000AF786039607A683B689A428CBF012388
:100880000023DBB2FB6006481E21FA68FFF744FF35
:1008900004480821FA68FFF73FFF1037BD4680BDC6
:1008A00000800C4004800C4080B582B000AF0B4843
:1008B0001E21FFF747FF786009480821FFF742FF34
:1008C00038607A683B689A4203D00648D821FFF71F
:1008D0001DFF7B6818460837BD4680BD00800C4070
:1008E00004800C403C2C000080B582B000AF244B4B
:1008F0005B6903F4E063B3F5007F1CD0B3F5007FC0
:1009000005D8002B25D0B3F5807F1FD02AE0B3F5A2
:10091000C06F24D0B3F5E06F1ED0B3F5407F21D176
:10092000FFF744FF0346122B02D9164B7B6021E0F0
:10093000154B7B601EE0FFF739FF0346122B02D9EF
:10094000124B7B6016E0124B7B6013E0114B7B6017
:1009500010E0114B7B600DE0104B7B600AE0104B08
:100960007B6007E00F484FF48D71FFF7CFFE002347
:100970007B6000BF7B6818460837BD4680BD00BF5E
:1009800000800C40804F120040420F0040B56400D0
:10099000C0CF6A00C0D8A700809FD500406F40013B
:1009A000003FAB013C2C000080B582B000AF0F4887
:1009B00000F014FC0346FB70FB78072B05D0082BD6
:1009C00007D1FFF73FFC78600BE0FFF78DFF786001
:1009D00007E0074840F24311FFF798FE00237B60D1
:1009E00000BF7B6818460837BD4680BD06000C0076
:1009F0003C2C000080B485B000AF7860284BDB6BE6
:100A0000002B14BF01230023BB72254B41F671322A
:100A1000DA63234B5B6803F00703FB60FB68012B81
:100A200001D9042B02D10023FB7202E00123FB72E7
:100A300000BF7B681B4A934207D9FB7A002B01D089
:100A4000052300E00423FB6016E07B68154A93420F
:100A50000BD87B68144A934207D9FB7A002B01D04C
:100A6000032300E00123FB6006E0FB7A002B01D0AA
:100A7000022300E00023FB600949094B5B6823F077
:100A80000702FB6813434B60BB7A002B02D0044B78
:100A90000022DA631437BD465DF8047B704700BF5F
:100AA00000000C400048E8010024F40080B500AFCD
:100AB000FFF7BEFB03461846FFF79CFF80BD00BF53
:100AC00090B585B000AF78600023BB607B683B4A7F
:100AD000934208D03A4A934205D03A484FF4F17114
:100AE000FFF714FE00E000BF786800F077FB0346D4
:100AF000FB607B68314A934203D0314A934206D06F
:100B00000CE0314B9B6A03F00303FB600CE02E4BBF
:100B10009B6A03F00C039B08FB6005E029484FF437
:100B20000371FFF7F3FD00BFFB68032B39D801A267
:100B300052F823F06B0B0000450B00004D0B00003A
:100B4000550B0000FFF710FCB86032E0FFF720FC07
:100B5000B8602EE0FFF752FB0446FFF7A5FE034600
:100B6000013324FA03F3BB6023E00023BB607B68FE
:100B7000124A934203D07B68114A934210D1124B20
:100B80009A6A7B680D498B4201D1102300E014233F
:100B900022FA03F3002B03D0FFF7F0FBB86008E064
:100BA00007E0084840F23721FFF7B0FD0023BB60A3
:100BB00000BFBB6818461437BD4690BD0200180040
:100BC00003001A003C2C000000800C4080B483B06D
:100BD00000AF7860094B5B6D03F00103002B00D080
:100BE00006E000BF054B1A6D7B681340002BF9D15E
:100BF0000C37BD465DF8047B704700BF00800C4099
:100C000080B582B000AF104800F0E8FA0346FB70F0
:100C1000FB78032B07D0082B09D0022B0BD1FFF751
:100C2000B7FB78600AE0FFF79FFB786006E0FFF70C
:100C300009FB786002E000237B6000BF7B681846F8
:100C40000837BD4680BD00BF07232000B0B584B083
:100C500000AF786039607B681B0903F00F03FB600D
:100C6000FB68013B062B00F23C8101A252F823F005
:100C70008D0C0000E30E0000E30E0000C90C000024
:100C8000FB0C0000570D0000630E00003B68002BBA
:100C900002D03B68082B04D9964840F2E241FFF7A6
:100CA00035FDFFF703FF9449934B1B6823F4E032B3
:100CB0003B68013B9B0313430B60FFF79FFAB8604F
:100CC000B868FFF797FE12E13B68002B03D03B6842
:100CD000B3F5007F04D9874840F2F541FFF716FDD0
:100CE0003868FFF745FD38608349834B9B6823F0E4
:100CF0000F023B6813438B60F9E03B68002B03D085
:100D00003B68B3F5007F04D97A4840F2FD41FFF714
:100D1000FDFCFFF7CBFEFFF795FA02463B68B2FBFE
:100D2000F3F4FFF761FD034620461946FFF79EFDE9
:100D30003868FFF71DFD38606F496F4B5B6823F023
:100D40000F023B6813434B60FFF758FAB860B8686E
:100D5000FFF750FECBE07B68684A934227D0674A92
:100D6000934203D8664A934207D073E0654A9342A0
:100D700037D0654A934255D06CE03B68B3F5004FDD
:100D800004D95C4840F21951FFF7C0FC0420FFF77A
:100D90001DFF3868FFF7ECFC38605749564B9B6ED7
:100DA00023F0F0023B681B0113438B6658E03B685D
:100DB000B3F5004F04D94F4840F22751FFF7A6FC86
:100DC0000420FFF703FF3868FFF7D2FC38604A4978
:100DD000494B9B6E23F470623B681B0213438B6686
:100DE0003EE03B680F2B02D93B68802B04D9414879
:100DF00040F23651FFF78AFC0420FFF7E7FE38681F
:100E0000FFF7B6FC38603C4D3B4B9B6E23F44054DF
:100E10001020FFF7ADFC02463B689B1A1B032343DF
:100E2000AB661DE03B68082B04D9324840F24651BE
:100E3000FFF76CFC0420FFF7C9FE3868FFF798FC49
:100E400038602D492C4B9B6E23F003023B68134303
:100E50008B6605E0274840F25451FFF757FC00BF6E
:100E600045E07B68294A934203D0294A934218D02F
:100E700030E03B68082B04D91E4840F25E51FFF772
:100E800045FC4020FFF7A2FE3868FFF771FC386090
:100E90001949194B1B6F23F003023B6813430B677F
:100EA0001EE03B68082B04D9124840F26D51FFF751
:100EB0002DFC4020FFF78AFE3868FFF759FC3860A8
:100EC0000D490D4B1B6F23F030023B681B01134390
:100ED0000B6705E0074840F27B51FFF717FC00BFA6
:100EE00005E0044840F28151FFF710FC00BF1037C5
:100EF000BD46B0BD3C2C000000800C4060261200B6
:100F000060161000600024006006280070071400BE
:100F10007017160090B587B000AF78600B46FB7075
:100F200000233B617B681B0A03F00F03013B092B85
:100F300037D801A252F823F07D0F0000830F000084
:100F4000610F0000A30F0000A30F0000890F000035
:100F5000930F0000A30F0000A30F00009D0F0000DF
:100F60001D4B7B611D4800F047F80446FFF73CFC31
:100F7000034620461946FFF779FC18E0184B7B61C1
:100F800015E0184B7B6112E0174B7B6101233B613D
:100F90000DE0164B7B6110233B6108E0144B7B6135
:100FA00005E014484FF4BD61FFF7B0FB10E07B682B
:100FB0001B0B03F01F03FB603B69002B02D0386959
:100FC000FFF704FEFB787869F9681A46FFF7A4FB7F
:100FD0001C37BD4690BD00BF40800C40004302005E
:100FE00008800C4044800C4058800C4060800C40CD
:100FF00078800C403C2C000090B585B000AF786044
:101000007B6803F47813B3F5A01F00F0AB80B3F551
:10101000A01F1AD8B3F5402F00F0BF80B3F5402FC2
:1010200008D8B3F5003F3CD0B3F5802F2DD0002B6E
:1010300027D0BEE0B3F5801F3CD0B3F5901F47D05A
:10104000B3F5602F00F0AD80B3E0B3F5001F00F002
:10105000AC80B3F5001F0AD8B3F5C01F25D0B3F597
:10106000D01F7AD0B3F5B01F00F08980A1E0B3F5AE
:10107000181F4ED0B3F5201F62D0B3F5101F35D026
:1010800097E0FFF7DFF8F8609BE0FFF7DBF8F86028
:101090004E4B9B6803F00F031A46FB68D340FB607E
:1010A0008FE0FFF7ABF8F8608BE04948FFF708FDE9
:1010B000F86086E04648FFF703FDF860434B9B6EFF
:1010C00003F0F0031B091A46FB68D340FB6078E08D
:1010D0003F48FFF7F5FCF8603C4B9B6E03F47063F0
:1010E0001B0A1A46FB68D340FB606AE03848FFF7EA
:1010F000E7FCF860354B9B6E03F440531C0B10204B
:10110000FFF736FB034623441A46FB68D340FB60D7
:1011100057E02F48FFF7D4FCF8602C4B9B6E03F48C
:1011200040531B0B1A46FB68D340FB60274BDB6F19
:1011300003F007030133FA68B2FBF3F3FB6040E00E
:101140002348FFF7BDFCF860204B9B6E03F00303C0
:101150001A46FB68D340FB6033E01E48FFF7B0FC43
:10116000F8602EE01B48FFF7ABFCF860174B1B6FD5
:1011700003F003031A46FB68D340FB6021E01548E7
:10118000FFF79EFCF860114B1B6F03F030031B0947
:101190001A46FB68D340FB6013E0FFF705FCF860DC
:1011A0000FE0FFF7A1FBF8600BE0FFF729FDF86007
:1011B00007E0094840F2AA61FFF7A8FA0023FB60A4
:1011C00000BFFB6818461437BD4690BD00800C4038
:1011D0000200180003001A003C2C000080B584B007
:1011E00000AF78600123FB737B6803F00F03BB60E3
:1011F000BB68013B062B00F2938001A252F823F05A
:101200001D120000531200008F1200002113000075
:1012100021130000CB120000ED120000474BDB6AE7
:1012200003F47053B3F5805F09D0B3F5005F03D0CA
:10123000B3F5006F06D008E00223FB7308E0032338
:10124000FB7305E00423FB7302E00523FB7300BF7F
:101250006EE03A4B9B6A03F00303022B06D0032B8C
:1012600007D0012B08D10323FB730FE00223FB738C
:101270000CE00623FB7309E0304B9B6A03F48033D8
:10128000002B02D00923FB7300E000BF50E02B4B82
:101290009B6A03F00C03082B06D00C2B07D0042B01
:1012A00008D10323FB730FE00223FB730CE006233A
:1012B000FB7309E0214B9B6A03F48013002B02D0DF
:1012C0000923FB7300E000BF32E01C4B1B6803F0F6
:1012D0008053002B03D0B3F1805F03D028E00723B5
:1012E000FB7302E00823FB7300BF21E0134BDB6AB2
:1012F00003F46033B3F5803F08D0B3F5003F08D066
:10130000B3F5004F08D10823FB7308E00223FB73F9
:1013100005E00323FB7302E00123FB7300BF07E03A
:10132000074840F65111FFF7F1F90023FB7300BFA6
:10133000FB7B18461037BD4680BD00BF00800C40C7
:101340003C2C000090B589B000AF78600B46FB7074
:101350000323FB610323FB7600233B617B6803F0DF
:101360000F03FB60FB68013B062B00F2518101A2D9
:1013700052F823F09113000095140000951400001A
:101380001116000011160000691500009F150000DD
:10139000FB78023B072B58D801A252F823F000BF7C
:1013A000C1130000CB130000D51300001F14000070
:1013B0004B1400004B1400004B1400003F140000BD
:1013C0000423FB610023FB7645E00323FB6101233B
:1013D000FB7640E00223FB610223FB76FFF704FA71
:1013E00003465C1CFFF700FA034620461946FFF748
:1013F0003DFAFEF7A7FF02468B4B9A4206D98B4A6D
:101400008A4B1B6843F06003136024E0874A874BD4
:101410001B6823F0600343F0200313601BE00123EB
:10142000FB610323FB76FFF7DFF903465C1CFFF744
:10143000DBF9034620461946FFF718FA0BE07C4813
:1014400040F6DC11FFF762F9EAE0794840F6E11175
:10145000FFF75CF9E4E0FB7E18460121012200F071
:10146000EDF8FFF723FB714AFB6953627148FFF700
:10147000C3FD0446FFF7B8F9034620461946FFF7B7
:10148000F5F900F0B7F9FEF7B9FEB860B868FFF7F4
:10149000B1FAC3E0FB78013B082B3FD801A252F818
:1014A00023F000BFC9140000CF140000DF140000B7
:1014B0001D1500001D150000EF1400001D15000093
:1014C0001D1500001315000000237B612CE0002097
:1014D0000121012200F0B2F802237B6124E0012007
:1014E0000121012200F0AAF801237B611CE0FEF734
:1014F00085FEB860FFF778F90346B8681946FFF72C
:10150000B5F94D4804210122FFF706F903237B6159
:101510000AE000237B6101233B6105E0444840F67B
:101520006421FFF7F3F87BE0FB68022B0DD13F4904
:101530003E4B9B6A23F4803323F003037A691A43FA
:101540003B691B0413438B6268E03849374B9B6A45
:1015500023F4801323F00C037A6992001A433B6949
:101560001B0513438B6259E0FB78072B02D0082B35
:1015700007D00DE02D4A2D4B1B6823F080531360DC
:101580000CE02A4A294B1B6843F08053136005E0A6
:10159000274840F6C421FFF7B9F841E03EE0FB7868
:1015A000032B13D0082B21D0022B2AD1002001219C
:1015B000012200F043F81D4B40225A6200BF1B4B32
:1015C000DB6A03F48033002BF9D020E001200121F5
:1015D000012200F033F8154B60225A6200BF134B12
:1015E000DB6A03F40033002BF9D010E00F4B20220C
:1015F0005A6200BF0D4BDB6A03F40043002BF9D0A5
:1016000005E00B4840F60831FFF780F808E005E0F8
:10161000074840F60F31FFF779F800BFFFF744F9AC
:101620002437BD4690BD00BF0048E80100800C4053
:101630003C2C00000043020040800C4080B586B086
:1016400000AF0346FB710B46BB7113467B71FB7900
:10165000042B32D801A252F823F000BFA9160000D3
:101660009B1600007F160000711600008D1600000A
:1016700001233B610223FB6001237B6123E0042300
:101680003B610823FB6003237B611CE010233B616B
:101690002023FB6005237B6115E040233B61802311
:1016A000FB6007237B610EE04FF480733B614FF4D6
:1016B0000073FB6009237B6105E0104840F6C451CC
:1016C000FFF724F816E0BB79002B0ED00C4A3B69DB
:1016D00013627B79002B0BD000BF0A487969FFF7B2
:1016E00031F80346002BF8D002E0054AFB6813628C
:1016F00000F080F81837BD4680BD00BF3C2C0000CC
:1017000000800C402C800C4080B58AB000AF374B75
:1017100003F580531B68BB61344B03F580530C33D6
:101720001B68BA691340BB61BB69002B04DA3048FF
:1017300040F22B11FEF7EAFF2C4B9B6B7B61BA69E1
:101740007B6913403B620023FB6149E000237B621D
:101750003BE03B6A03F00103002B30D0234B9B6836
:101760003B6101227B6A02FA03F3FB601F4B03F526
:1017700080530833FA681A607B6A1B013A69134484
:10178000DB68BB60BB68002B19D0BB681B7A7B6031
:10179000BB681B7A83F00103DAB2BB681A72BB68BC
:1017A0001B68002B0BD0BB681B68786A7A68002A1C
:1017B00014BF01220022D1B2BA68526898473B6A2E
:1017C0005B083B627B6A01337B623B6A002BC0D1C2
:1017D0007B69DA43BB6913403B62FB690133FB6100
:1017E000FB69012BB2DD2837BD4680BD00200C40CF
:1017F000502C000080B400AF034BDB6A034A136037
:10180000BD465DF8047B704700800C4090000020CE
:1018100080B582B000AF03463960FB71FB79002BC5
:101820001FD0FB79012B19D0FB79022B13D0FB7948
:10183000032B0DD0FB79042B07D0FB79052B02D1AC
:1018400041F6FF730FE000230DE04FF6FF730AE04F
:101850004FF6FF7307E04FF6FF7304E04FF6FF7398
:1018600001E04FF6FF733A68134103F00103002BC8
:1018700004D10B4840F2C621FEF748FF0949FA7926
:101880003B68012000FA03F318461346DB001344BB
:101890009B000B44103358600837BD4680BD00BF25
:1018A000642C00000060004080B582B000AF0346A9
:1018B0003960FB71FB79002B1FD0FB79012B19D00C
:1018C000FB79022B13D0FB79032B0DD0FB79042B72
:1018D00007D0FB79052B02D141F6FF730FE00023FF
:1018E0000DE04FF6FF730AE04FF6FF7307E04FF687
:1018F000FF7304E04FF6FF7301E04FF6FF733A68A1
:10190000134103F00103002B04D10B4840F2F321F3
:10191000FEF7FCFE0949FA793B68012000FA03F35F
:1019200018461346DB0013449B000B441033186029
:101930000837BD4680BD00BF642C00000060004039
:1019400090B583B000AF03460A46FB711346BB71E6
:10195000FB79002B0ED0FB79012B0BD0FB79022BEE
:1019600008D0FB79032B05D0FB79042B02D0FB793F
:10197000052B02D1BB79032B03D90D486C21FEF74F
:10198000C5FE0C48FA790B4CF9790B46DB000B4489
:101990009B0023441B6823F00301BB7919431346C2
:1019A000DB0013449B00034419600C37BD4690BD17
:1019B000B82C00000060004090B585B000AFB96061
:1019C0007B600346FB731346BB73FB7B002B1FD06E
:1019D000FB7B012B19D0FB7B022B13D0FB7B032B52
:1019E0000DD0FB7B042B07D0FB7B052B02D141F6EE
:1019F000FF730FE000230DE04FF6FF730AE04FF690
:101A0000FF7307E04FF6FF7304E04FF6FF7301E04A
:101A10004FF6FF73BA68134103F00103002B04D1A2
:101A200037484FF48771FEF771FEBB7B002B0DD05A
:101A30007B68002B05D0FB7B1846B968FFF734FFA5
:101A400004E0FB7B1846B968FFF7E2FEBB68072B92
:101A50001CD82C4CFA7B2B48F97B0B46DB000B4443
:101A60009B0003445B68B968890008460F218140E8
:101A7000C9430B40B97BB8688000814019431346C5
:101A8000DB0013449B002344596024E01D4CFA7B87
:101A90001C48F97B0B46DB000B449B0003440833D6
:101AA0001968BB6803F18043083B9B0018460F236D
:101AB0008340DB431940B87BBB6803F18043083B9C
:101AC0009B0000FA03F319431346DB0013449B0009
:101AD000234408331960BB7B002B0DD17B68002B9E
:101AE00005D0FB7B1846B968FFF7DEFE04E0FB7B00
:101AF0001846B968FFF78CFE1437BD4690BD00BF8D
:101B0000B82C00000060004080B487B000AFF860DF
:101B1000B9607A60FB6803F10473DA00BB681344B0
:101B20009B007B617B697A681A601C37BD465DF853
:101B3000047B704780B485B000AFF860B9607A600C
:101B4000FB681A68BB68DB431A407B681A43FB6872
:101B50001A601437BD465DF8047B704780B588B0C5
:101B600000AFF860B9607A60FB707B68002B03D12E
:101B70004148EC21FEF7CAFD7B68002B00D178E0DC
:101B8000FB681B6823F44072FB681A60FA68FB78F4
:101B90001B0210464FF440711A46FFF7CBFFBB689B
:101BA000002B03D13548FFF727FAB8604FF0FF3319
:101BB000FB61FB681B6803F00203002B11D0FB786C
:101BC000012B07D0022B08D0002B00D019E02C4BA2
:101BD000FB6105E02B4BFB6102E02B4BFB6100BF7F
:101BE0000FE0FB78012B06D0022B07D0002B08D189
:101BF000264BFB6105E0264BFB6102E0254BFB61B8
:101C000000BFBA68FB699A4204D81B4840F227110A
:101C1000FEF77CFDFB78204AD35C7B617B689B00F0
:101C2000BA68D21A7B69796801FB03F3B2FBF3F35C
:101C3000013BBB61BB69002B04DA0F4840F2351150
:101C4000FEF764FDBB69B3F5007F04D30A484FF487
:101C50009B71FEF75BFDFB681B6803F00203002B22
:101C600004D0BB69002B01D10123BB61BA69FB68B9
:101C70001A612037BD4680BDD02C00004081040091
:101C800040164000C0D8A7008050740180841E0018
:101C900040548900002D3101CC2C000080B582B069
:101CA00000AF786039607B68194A934208D07B683E
:101CB000184A934204D0184840F26311FEF726FDFB
:101CC0007B6800225A637B68144A1A637A683B680F
:101CD0005B78002B01D0002300E001231046012196
:101CE0001A46FFF711FF3B6859683B689A683B68E2
:101CF0001B7B7868FFF732FF7A683B681B781046D9
:101D000000211A46FFF700FF0837BD4680BD00BF1F
:101D100000A0004000A40040D02C0000CFFF010034
:101D200080B586B000AFF860B9607A60FB68114A90
:101D3000934207D1BB68012B04D87B681B0C1B04A2
:101D4000002B03D00C48BA21FEF7E0FCBB68002B47
:101D500002D0012B04D00AE0FB6810337B6103E062
:101D6000FB6814337B6100BF7B697A681A6018379F
:101D7000BD4680BD00200840E42C000080B584B042
:101D800000AF786039600023FB607B683B4A934278
:101D900004D03B4840F24B11FEF7B8FC3B681B787F
:101DA00083F00103DBB2002B08D07B689B6803F053
:101DB0000103002B02D07B6802225A603B685B78EB
:101DC000002B03D0FB6843F48053FB603B689B7897
:101DD000002B03D0FB6843F48063FB603B68DB7837
:101DE000002B03D0FB6843F40063FB603B681B7966
:101DF000002B03D0FB6843F40073FB603B685B7906
:101E0000002B03D0FB6843F48073FB603B689B7935
:101E1000002B03D0FB6843F04003FB603B68DB7999
:101E2000002B03D0FB6843F08003FB603B681B7A08
:101E30009B001A46FB681343FB603B685B7A1B01FF
:101E40001A46FB681343FB603B689B7A1A46FB68A3
:101E50001343FB607B68FA681A603B681B78002BB1
:101E600008D07B689B6803F00103002B02D17B68DC
:101E700001225A601037BD4680BD00BF00200840D7
:101E8000E42C000080B483B000AF786039607B68D8
:101E90001B6C03F00103002B00D006E000BF7B6841
:101EA0005A6C3B681340002BF9D10C37BD465DF8E6
:101EB000047B704780B586B000AFF860B9607A6087
:101EC0007B68002B04D122484FF48671FEF71EFC7C
:101ED000BB68002B17D1FB681E4A934202D11E4BF0
:101EE0007B610CE0FB681D4A934202D11C4B7B6175
:101EF00005E017484FF49C71FEF708FC25E078696F
:101F0000FFF77AF8B860BB685A017B68B2FBF3F35D
:101F10003B613B69203B3B613B69DB003B613B69CB
:101F200047F6F872934204D9094840F24511FEF78A
:101F3000EDFB3A6947F6F87313403B61F8680421FA
:101F4000FFF7A0FFFB683A69DA601837BD4680BD2D
:101F5000FC2C0000004008407007140000440840BA
:101F60007017160080B483B000AF78600B46FB702A
:101F7000FB78002B08D000BF7B685B6C002BFBD18B
:101F80007B6801221A6402E07B6800221A640C3725
:101F9000BD465DF8047B704780B582B000AF7860C5
:101FA00039607B681D4A934208D07B681C4A934283
:101FB00004D01C484FF4E871FEF7A8FB78680221B2
:101FC000FFF760FF7B680A225A6078680121FFF7FB
:101FD000C9FF7B681B6823F01C033A68127B13431C
:101FE0003A68527B13433A68927B1A437B681A60C3
:101FF0003B685A683B689B68786811461A46FFF749
:1020000059FF3B681B781A467B685A607868002144
:10201000FFF7A8FF0837BD4680BD00BF004008405D
:1020200000440840FC2C000080B582B000AF78600E
:102030007B68194A934208D07B68184A934204D0BF
:10204000174840F2F711FEF761FB78680121FFF7AE
:1020500089FF7B68EA225A607B6800221A607B68ED
:102060000022DA607B6800221A617B6800225A61D4
:102070007B6800229A637B6840F2F9725A637B683E
:102080000022DA637B6800225A6578680021FFF736
:1020900069FF0837BD4680BD004008400044084045
:1020A000FC2C000080B582B000AF78600B46FB705E
:1020B00000BF7B689B6803F01003002BF9D07868A1
:1020C0004021FFF7DFFEFA787B689A620837BD4649
:1020D00080BD00BF80B584B000AF78607B68002B06
:1020E00003D11A484121FEF711FB194B5B69DBB2A2
:1020F00003F00F03DBB29B00FB73154B1B6903F06E
:10210000C0039B09DAB2FB7B1343FB737B68FA7B4A
:102110009A700F4B1B69DBB203F03F03DAB27B68A6
:102120005A700B4B9B69DBB223F00F03FB73084B18
:10213000DB6903F0F0031B09DAB2FB7B1343FB738B
:102140007B68FA7B1A701037BD4680BD142D0000E5
:10215000D0FF0FE080B400AF72B6084B1B68B3F13C
:10216000FF3F04D0054B1B680133044A1360034B47
:102170001B681846BD465DF8047B7047940000203C
:1021800080B483B000AF0C4B1B68002B0DD00A4B02
:102190001B68013B084A1360074B1B687B607B6828
:1021A000002B00D162B67B6800E0002318460C3794
:1021B000BD465DF8047B70479400002080B483B076
:1021C00000AF786039607B683A681A620C37BD46A8
:1021D0005DF8047B704700BF80B582B000AFFFF7A9
:1021E000B9FF0E480121FFF7E9FF00237B600C4B8C
:1021F0001B881946094B5A6A8B0007F108010B44EA
:1022000043F8082C064B1B8801339AB2044B1A8002
:10221000FFF7B6FF0837BD4680BD00BF0020004075
:10222000D400002080B586B000AF00233B740023AB
:102230007B740323BB740020FEF738FA0346FB745B
:1022400012480021FEF700FA03463B7500237B7518
:102250000F4A3B1D1068516803C3127A1A700D4A69
:102260000C4BDB6843F4C06343F00603D36007F113
:10227000100308481946FEF727F93B1D0548194683
:10228000FEF788F91837BD4680BD00BF405DC60027
:102290002C2D00000020004080B500AFFDF7AEFF00
:1022A00080BD00BF80B500AFFFF7F6FF112005210C
:1022B000FFF748F824480221FFF744F8234801219A
:1022C000FFF740F822480121FEF724FE21480121B2
:1022D000FEF720FE20480121FEF71CFE1F480121C9
:1022E000FEF718FE1E480121FEF714FE1D480121CD
:1022F000FEF710FE1C480121FEF70CFE1B480121D1
:10230000FEF708FE1A480121FEF704FE19480121D4
:10231000FEF700FE17484FF40041FEF797FC164801
:102320000121FEF7F7FD14480121FEF78FFC064856
:102330000221FFF707F811480121FEF7EBFD1048D5
:102340000121FEF7E7FD80BD0200180003001A001E
:10235000408104000092040000A204000043020037
:1023600000520400000205000003020000C2040045
:102370007007140060161000600628006026120026
:1023800000D2040080B500AF0320072104220023FF
:10239000FFF712FB03200021FFF7D2FA03200021F0
:1023A000FFF7CEFA0320062100220023FFF704FBEB
:1023B00080BD00BF80B582B000AF0C4B1B687B6056
:1023C0003B461846FFF786FE7B681B0E0F2B0AD98B
:1023D0003B78032B07D1064A054B1B6823F05003BB
:1023E00043F0100313600837BD4680BDFC81E00F49
:1023F000C0800C4080B500AFFFF7DCFFFFF752FF55
:10240000002000F015F9FFF7BDFFFFF70BFF00F00C
:10241000CBF800F08FFA00F013FBFEE790B585B023
:1024200000AF1C480121FEF775FD1B480121FEF796
:1024300071FD022005210A220123FFF7BDFA0220C7
:1024400004210A220123FFF7B7FA144B3C460FCBB5
:1024500084E80F00124A124B1B6823F040031360FC
:102460000F4A0F4B1B6823F0200313600C4B032211
:102470009A633B460A481946FFF710FC084B9B68D5
:1024800003F00103002B02D0054B20225A601437C1
:10249000BD4690BD00C2040000B20400382D00000B
:1024A00000A4004080B400AF084BAA225A62074B38
:1024B00001225A6000BF054B9B6A03F04003002BCA
:1024C000F9D0BD465DF8047B704700BF00A4004012
:1024D00080B582B000AF03460A46FB801346BB803E
:1024E000FFF7E0FF114B40221A63104AFB8853624A
:1024F00000BF0E4B9B6A03F04003002BF9D00B4B3F
:1025000040221A63094ABB88536200BF074B9B6A8B
:1025100003F04003002BF9D0044B40221A63034B15
:1025200002225A600837BD4680BD00BF00A40040AB
:1025300080B584B000AF1B4B9B6803F00103002BF8
:1025400002D0184B20225A600023FB6002E0FB6897
:102550000133FB60FB684CF24F329342F7DD0023FE
:10256000BB600EE0022005210A220023FFF724FAB7
:10257000022005210A220123FFF71EFABB6801335E
:10258000BB60BB68082BEDDD00237B6002E07B684D
:1025900001337B607B684CF24F329342F7DD10379A
:1025A000BD4680BD00A4004080B500AFFFF736FFF8
:1025B000FFF7BEFF60200021FFF78AFF014B0122D9
:1025C0001A6080BD4C01002080B400AF72B6084B89
:1025D0001B68B3F1FF3F04D0054B1B680133044A6D
:1025E0001360034B1B681846BD465DF8047B7047BB
:1025F0009400002080B483B000AF0C4B1B68002B0C
:102600000DD00A4B1B68013B084A1360074B1B683F
:102610007B607B68002B00D162B67B6800E0002302
:1026200018460C37BD465DF8047B704794000020C7
:1026300080B582B000AF7860FFF7C6FF064A7B68BE
:1026400052F823305A1C04497B6841F82320FFF7D5
:10265000D1FF0837BD4680BDA401002080B483B0FF
:1026600000AF0346FB71084997F907305B09FA7917
:1026700002F01F02012000FA02F241F823200C3779
:10268000BD465DF8047B704700E100E080B400AF18
:1026900072B6084B1B68B3F1FF3F04D0054B1B68B3
:1026A0000133044A1360034B1B681846BD465DF8AE
:1026B000047B70479400002080B483B000AF0C4BC3
:1026C0001B68002B0DD00A4B1B68013B084A1360A6
:1026D000074B1B687B607B68002B00D162B67B6870
:1026E00000E0002318460C37BD465DF8047B7047B8
:1026F0009400002080B483B000AF786039607B68BC
:102700003A689A620C37BD465DF8047B704700BF9B
:1027100080B483B000AF78607B685B6A18460C3782
:10272000BD465DF8047B704790B583B000AFFFF7FE
:10273000ADFF6F4B1B685A1C6E4B83FB02131912C3
:10274000D317CB1A41F28D3101FB03F3D31A684A38
:102750001360694B1B6A03F00203002B04D0664828
:102760000221FFF7C7FFBDE0634B1B6A03F00403C0
:10277000002B00F0B78060480421FFF7BBFF5C4BE3
:102780001B68012B06D10320072104220023FFF739
:1027900013F9A7E0564B1B68042B40F3A380574B5B
:1027A00001225A6000BF554B9B6803F00103002BC8
:1027B000F9D1534B1C685148FFF7AAFF0246514B11
:1027C00043F824204E4B1B6801334D4A13604C4B99
:1027D0001B6841F28D32934240F084804A4B0122C3
:1027E0001A700320072104220123FFF7E5F8434B69
:1027F00002225A60424B00221A6000237B6059E09B
:10280000414B1B78002B12D03F4B00221A703D4ADF
:102810007B6852F823301A463C4B1A603B4B1B68CE
:102820003B4A1360394B1B683A4A13603FE03A4B0E
:102830001B683A4A1360334A7B6852F823301A46C1
:10284000324B1A60314B1A68314B1B689A4207DDD4
:102850002F4B1B68324A13602C4B1B682C4A1360A9
:102860002A4B1A682B4B1B689A4207DA294B1B68C4
:102870002C4A1360254B1B68264A1360244B1A68A8
:10288000244B1B68D31A244A1360244B1A68224B2A
:102890001B689A420BDA204B1B68DB2B07DD224BAF
:1028A0001B680133204A1360174B01221A707B68A2
:1028B00001337B607B6841F28C329342A0DD1A4B7E
:1028C0001A6813465B0013449B001A46174B1A60A4
:1028D000164B1B68DBB216481946FFF7E3FB124B99
:1028E00000221A60FFF7E8FE0C37BD4690BD00BF1E
:1028F000B40100205317180D0020084000200040AC
:1029000098000020B8010020B8000020A40000209A
:102910009C000020A0000020B4000020B000002097
:10292000AC000020A8000020BC000020C000002057
:102930000040084080B586B000AF20237B6140F2A4
:1029400047133B617B69174800211A46FFF7E8F9F6
:102950003B69144801211A46FFF7E2F93B1D0022AA
:102960001A60043300221A60043300221A800233F2
:1029700000221A70013301233B7101233B720123B2
:10298000FB723B1D07481946FFF7F8F91A20FFF7BD
:1029900065FE044A034BDB6A43F00603D362183733
:1029A000BD4680BD0020084080B483B000AF034620
:1029B000FB71084997F907305B09FA7902F01F02A9
:1029C000012000FA02F241F823200C37BD465DF8E1
:1029D000047B704700E100E080B400AF72B6084BA2
:1029E0001B68B3F1FF3F04D0054B1B680133044A59
:1029F0001360034B1B681846BD465DF8047B7047A7
:102A00009400002080B483B000AF0C4B1B68002BF7
:102A10000DD00A4B1B68013B084A1360074B1B682B
:102A20007B607B68002B00D162B67B6800E00023EE
:102A300018460C37BD465DF8047B704794000020B3
:102A400080B584B000AF18480321FEF77BFC17481F
:102A5000FFF7EAFA3B4600221A60043300221A60AC
:102A6000043300221A60043300221A6004334FF446
:102A70001653BB603B460D481946FFF78DFA0B4BCA
:102A800002225A65094A094B5B6843F0040353600C
:102A90000320042104220123FEF78EFF1820FFF7F4
:102AA00083FF1037BD4680BD03001A000040084078
:102AB00080B582B000AFFFF78FFF194B01225A6338
:102AC0001DE0184B1B68184AD35CFB71FB79144856
:102AD0001946FFF7E7FA134B1B68134A0021D1543C
:102AE000104B1B685A1C114B83FB02135911D3174F
:102AF000CB1A642101FB03F3D31A0A4A1360094B72
:102B00001A680B4B1B689A42DBD1054A044B9B6B3E
:102B100023F002039363FFF775FF0837BD4680BDBE
:102B200000400840CC000020DC0000201F85EB5155
:102B30004001002008B5074B044613B10021AFF354
:102B40000080054B1868836A03B19847204600F05F
:102B500033F800BF000000004C2D00000E4B70B594
:102B60001E460E4C0025E41AA410A54204D056F8C7
:102B7000253098470135F8E700F020F8084B094C5C
:102B80001E46E41AA4100025A54204D056F82530AC
:102B900098470135F8E770BD680000206800002004
:102BA000680000206C00002003460244934202D0DB
:102BB00003F8011BFAE77047FEE700BFF8B500BF56
:102BC000F8BC08BC9E467047F8B500BFF8BC08BC0E
:102BD0009E4670472E2E2F656D6C69622F656D5F66
:102BE0006164632E63000000633A5C73696C69631F
:102BF0006F6E6C6162735C73696D706C696369742C
:102C00007973747564696F5C76345C646576656C41
:102C10006F7065725C73646B735C65787833325C7B
:102C200076342E342E305C656D6C69625C696E633F
:102C30005C656D5F636D752E680000002E2E2F653C
:102C40006D6C69622F656D5F636D752E63000000AA
:102C50002E2E2F656D6C69622F656D5F646D612E20
:102C600063000000633A5C73696C69636F6E6C614A
:102C700062735C73696D706C696369747973747580
:102C800064696F5C76345C646576656C6F706572E0
:102C90005C73646B735C65787833325C76342E34A5
:102CA0002E305C656D6C69625C696E635C656D5F3E
:102CB0006770696F2E6800002E2E2F656D6C69623B
:102CC0002F656D5F6770696F2E630000080911083A
:102CD0002E2E2F656D6C69622F656D5F6932632ED4
:102CE000630000002E2E2F656D6C69622F656D5F8D
:102CF0006C6574696D65722E630000002E2E2F6561
:102D00006D6C69622F656D5F6C65756172742E63A1
:102D1000000000002E2E2F656D6C69622F656D5FBF
:102D200073797374656D2E63000000000003020068
:102D3000060000000000000001010000000000008B
:102D40006067010000000000430000000800002050
:042D5000000000007F
:082D5400E8D3FF7F010000003D
:102D5C00006CDC020080000000000000000000009D
:102D6C000000000000000000000000000000000057
:102D7C000000000000000000482D000000000000D2
:102D8C000000000000000000000000000000000037
:102D9C000000000000000000000000000000000027
:102DAC000000000000000000000000000000000017
:102DBC00000000000000000005010000E100000020
:042DCC000000000003
:04000003000001B147
:00000001FF
