:1000000000800020B1010000DD010000DD010000E2
:10001000DD010000DD010000DD010000DD01000068
:10002000DD010000DD010000DD010000DD01000058
:10003000DD010000DD010000DD010000DD01000048
:10004000A5130000DD010000DD010000DD0100005E
:10005000DD010000DD010000DD010000DD01000028
:10006000DD010000DD010000DD010000DD01000018
:10007000DD010000DD010000DD010000DD01000008
:10008000DD010000DD010000DD010000DD010000F8
:10009000DD010000DD010000DD010000DD010000E8
:1000A000DD010000DD010000DD010000DD010000D8
:1000B000DD010000DD010000DD010000DD010000C8
:1000C000DD010000DD010000DD010000DD010000B8
:1000D000DD010000DD010000DD010000DD010000A8
:1000E00010B5054C237833B9044B13B10448AFF372
:1000F00000800123237010BD740000200000000068
:10010000381B0000084B10B51BB108480849AFF375
:1001100000800848036803B910BD074B002BFBD0D3
:10012000BDE81040184700BF00000000381B000069
:10013000780000207000002000000000154B002B0C
:1001400008BF134B9D46A3F5803A00218B460F460E
:100150001348144A121A01F059FC0F4B002B00D01F
:1001600098470E4B002B00D0984700200021040038
:100170000D000D48002802D00C48AFF3008001F0BC
:100180001FFC2000290001F0B1FB01F005FC00BFBD
:1001900000000800008000200000000000000000B7
:1001A00074000020AC0000200000000000000000EF
:1001B000064880470649074A074B9A42BEBF51F896
:1001C000040B42F8040BF8E7FFF7B8FF5D030000EB
:1001D000441B00000000002074000020FEE700BF68
:1001E00080B400AF044BDB6C1B0EDBB21846BD467F
:1001F0005DF8047B704700BFB081E00F80B582B02E
:1002000000AF00F01FF87860074B5B6803F00F0346
:100210001A467B68D3407B60044A7B6813607B6826
:1002200018460837BD4680BD00800C40980000206D
:1002300080B400AF024B1846BD465DF8047B7047A2
:10024000006CDC0280B582B000AF334BDB6A03F494
:100250007053B3F5805F0AD0B3F5005F03D0B3F5F8
:10026000006F08D00BE02D4B1B687B6047E04FF41C
:1002700000437B6043E02A4B1B687B603FE0264BDA
:10028000DB6803F4E063B3F5007F1BD0B3F5007FB8
:1002900005D8002B24D0B3F5807F16D02BE0B3F522
:1002A000806F09D0B3F5A06F03D0B3F5407F06D0BF
:1002B00021E01C4B7B6021E01B4B7B601EE01B4B55
:1002C0007B601BE01A4B7B6018E0FFF789FF034659
:1002D000122B02D9174B7B6010E0174B7B600DE0AF
:1002E000FFF77EFF0346122B02D9144B7B6005E01B
:1002F000134B7B6002E000237B6000BF00BF064B16
:100300001B6803F4E0339B0B01337A68B2FBF3F311
:1003100018460837BD4680BD00800C400400002010
:1003200000000020003FAB01406F4001809FD500DE
:10033000C0D8A70040B56400C0CF6A00804F12004B
:1003400040420F0080B400AF034B1B681846BD4607
:100350005DF8047B704700BF0000002080B400AF50
:10036000BD465DF8047B704780B400AF4FF4004396
:100370001846BD465DF8047B704700BF80B400AFEF
:100380004FF47A731846BD465DF8047B704700BF92
:1003900080B400AF034B1B681846BD465DF8047B74
:1003A000704700BF0400002080B483B000AF7860C5
:1003B0003960FEE780B487B000AFF860B9607A605A
:1003C000FB6803F10473DA00BB6813449B007B6194
:1003D0007B697A681A601C37BD465DF8047B7047FC
:1003E00080B485B000AF786039607B6803F1047336
:1003F000DA003B6813449B00FB60FB681B681846EF
:100400001437BD465DF8047B704700BF80B584B0EB
:1004100000AF78607B68002B03D07B68B3F5004F9A
:1004200004D9084840F2C941FFF7BEFF7B68B3FA20
:1004300083F3C3F11F03FB60FB6818461037BD460A
:1004400080BD00BF381A000080B400AF044BDB6CE5
:100450001B0EDBB21846BD465DF8047B704700BF3B
:10046000B081E00F80B400AF054BDB6C03F47F0379
:100470001B0CDBB21846BD465DF8047B704700BF1D
:10048000B081E00F80B582B000AFFFF7EBFF03460D
:100490004A2B04D0792B02D0482B21D022E0164BD6
:1004A0001B699BB203F03F039BB21B02FB80124B04
:1004B0009B6903F0F0039AB2FB881343FB800E4B59
:1004C000DB6903F0F0031B099AB2FB881343FB803E
:1004D000FB88B3F5017F01D3084B08E0084B06E029
:1004E000074B04E007489A21FFF75EFF00231846F8
:1004F0000837BD4680BD00BFD0FF0FE000366E015B
:100500000048E8018C1A000080B584B000AF786024
:1005100039607A683B689A428CBF01230023DBB2C2
:10052000FB6006481E21FA68FFF744FF04480821D3
:10053000FA68FFF73FFF1037BD4680BD00800C40D2
:1005400004800C4080B582B000AF0B481E21FFF73D
:1005500047FF786009480821FFF742FF38607A6852
:100560003B689A4203D00648D821FFF71DFF7B68FD
:1005700018460837BD4680BD00800C4004800C4002
:100580008C1A000080B582B000AF244B5B6903F485
:10059000E063B3F5007F1CD0B3F5007F05D8002BD6
:1005A00025D0B3F5807F1FD02AE0B3F5C06F24D0EB
:1005B000B3F5E06F1ED0B3F5407F21D1FFF744FFC4
:1005C0000346122B02D9164B7B6021E0154B7B6052
:1005D0001EE0FFF739FF0346122B02D9124B7B6056
:1005E00016E0124B7B6013E0114B7B6010E0114B67
:1005F0007B600DE0104B7B600AE0104B7B6007E0F6
:100600000F484FF48D71FFF7CFFE00237B6000BFD2
:100610007B6818460837BD4680BD00BF00800C408F
:10062000804F120040420F0040B56400C0CF6A0006
:10063000C0D8A700809FD500406F4001003FAB01AC
:100640008C1A000080B582B000AF0F4800F014FC97
:100650000346FB70FB78072B05D0082B07D1FFF76B
:10066000F1FD78600BE0FFF78DFF786007E0074849
:1006700040F24311FFF798FE00237B6000BF7B68C8
:1006800018460837BD4680BD06000C008C1A0000D5
:1006900080B485B000AF7860284BDB6B002B14BFB3
:1006A00001230023BB72254B41F67132DA63234BE1
:1006B0005B6803F00703FB60FB68012B01D9042B87
:1006C00002D10023FB7202E00123FB7200BF7B68B2
:1006D0001B4A934207D9FB7A002B01D0052300E087
:1006E0000423FB6016E07B68154A93420BD87B68B5
:1006F000144A934207D9FB7A002B01D0032300E070
:100700000123FB6006E0FB7A002B01D0022300E00E
:100710000023FB600949094B5B6823F00702FB6873
:1007200013434B60BB7A002B02D0044B0022DA63E8
:100730001437BD465DF8047B704700BF00000C40D5
:100740000048E8010024F40080B500AFFFF770FD19
:1007500003461846FFF79CFF80BD00BF90B585B0EB
:1007600000AF78600023BB607B683B4A934208D0AF
:100770003A4A934205D03A484FF4F171FFF714FE1C
:1007800000E000BF786800F077FB0346FB607B6801
:10079000314A934203D0314A934206D00CE0314BA8
:1007A0009B6A03F00303FB600CE02E4B9B6A03F093
:1007B0000C039B08FB6005E029484FF40371FFF729
:1007C000F3FD00BFFB68032B39D801A252F823F0D8
:1007D00007080000E1070000E9070000F10700003A
:1007E000FFF7C2FDB86032E0FFF7D2FDB8602EE03F
:1007F000FFF704FD0446FFF7A5FE0346013324FA84
:1008000003F3BB6023E00023BB607B68124A934282
:1008100003D07B68114A934210D1124B9A6A7B68CD
:100820000D498B4201D1102300E0142322FA03F377
:10083000002B03D0FFF7A2FDB86008E007E00848EE
:1008400040F23721FFF7B0FD0023BB6000BFBB685B
:1008500018461437BD4690BD0200180003001A0068
:100860008C1A000000800C4080B483B000AF786028
:10087000094B5B6D03F00103002B00D006E000BFC5
:10088000054B1A6D7B681340002BF9D10C37BD4620
:100890005DF8047B704700BF00800C4080B582B0DB
:1008A00000AF104800F0E8FA0346FB70FB78032B1A
:1008B00007D0082B09D0022B0BD1FFF769FD786018
:1008C0000AE0FFF751FD786006E0FFF7BBFC7860B7
:1008D00002E000237B6000BF7B6818460837BD46F6
:1008E00080BD00BF07232000B0B584B000AF7860A2
:1008F00039607B681B0903F00F03FB60FB68013B59
:10090000062B00F23C8101A252F823F029090000D5
:100910007F0B00007F0B00006509000097090000B5
:10092000F3090000FF0A00003B68002B02D03B687F
:10093000082B04D9964840F2E241FFF735FDFFF756
:1009400003FF9449934B1B6823F4E0323B68013B5F
:100950009B0313430B60FFF751FCB860B868FFF7C7
:1009600097FE12E13B68002B03D03B68B3F5007F94
:1009700004D9874840F2F541FFF716FD3868FFF7C4
:1009800045FD38608349834B9B6823F00F023B6829
:1009900013438B60F9E03B68002B03D03B68B3F551
:1009A000007F04D97A4840F2FD41FFF7FDFCFFF7D4
:1009B000CBFEFFF747FC02463B68B2FBF3F4FFF7C0
:1009C00061FD034620461946FFF79EFD3868FFF794
:1009D0001DFD38606F496F4B5B6823F00F023B6869
:1009E00013434B60FFF70AFCB860B868FFF750FE8E
:1009F000CBE07B68684A934227D0674A934203D88A
:100A0000664A934207D073E0654A934237D0654AFD
:100A1000934255D06CE03B68B3F5004F04D95C4875
:100A200040F21951FFF7C0FC0420FFF71DFF3868A2
:100A3000FFF7ECFC38605749564B9B6E23F0F002F1
:100A40003B681B0113438B6658E03B68B3F5004FCE
:100A500004D94F4840F22751FFF7A6FC0420FFF7C6
:100A600003FF3868FFF7D2FC38604A49494B9B6E58
:100A700023F470623B681B0213438B663EE03B68C5
:100A80000F2B02D93B68802B04D9414840F23651E4
:100A9000FFF78AFC0420FFF7E7FE3868FFF7B6FC93
:100AA00038603C4D3B4B9B6E23F440541020FFF7C5
:100AB000ADFC02463B689B1A1B032343AB661DE05B
:100AC0003B68082B04D9324840F24651FFF76CFCD2
:100AD0000420FFF7C9FE3868FFF798FC38602D49FD
:100AE0002C4B9B6E23F003023B6813438B6605E09F
:100AF000274840F25451FFF757FC00BF45E07B68A0
:100B0000294A934203D0294A934218D030E03B68E7
:100B1000082B04D91E4840F25E51FFF745FC4020E7
:100B2000FFF7A2FE3868FFF771FC38601949194BCE
:100B30001B6F23F003023B6813430B671EE03B6807
:100B4000082B04D9124840F26D51FFF72DFC4020CC
:100B5000FFF78AFE3868FFF759FC38600D490D4BE6
:100B60001B6F23F030023B681B0113430B6705E04A
:100B7000074840F27B51FFF717FC00BF05E004482F
:100B800040F28151FFF710FC00BF1037BD46B0BDE9
:100B90008C1A000000800C406026120060161000C5
:100BA000600024006006280070071400701716000B
:100BB00090B587B000AF78600B46FB7000233B61B7
:100BC0007B681B0A03F00F03013B092B37D801A2F6
:100BD00052F823F0190C00001F0C0000FD0B000060
:100BE0003F0C00003F0C0000250C00002F0C000003
:100BF0003F0C00003F0C0000390C00001D4B7B61D6
:100C00001D4800F047F80446FFF73CFC0346204629
:100C10001946FFF779FC18E0184B7B6115E0184B7B
:100C20007B6112E0174B7B6101233B610DE0164BAA
:100C30007B6110233B6108E0144B7B6105E01448A5
:100C40004FF4BD61FFF7B0FB10E07B681B0B03F0B6
:100C50001F03FB603B69002B02D03869FFF704FEDD
:100C6000FB787869F9681A46FFF7A4FB1C37BD4684
:100C700090BD00BF40800C400043020008800C4043
:100C800044800C4058800C4060800C4078800C40C0
:100C90008C1A000090B585B000AF78607B6803F4D3
:100CA0007813B3F5A01F00F0AB80B3F5A01F1AD8DE
:100CB000B3F5402F00F0BF80B3F5402F08D8B3F54F
:100CC000003F3CD0B3F5802F2DD0002B27D0BEE0C5
:100CD000B3F5801F3CD0B3F5901F47D0B3F5602F1C
:100CE00000F0AD80B3E0B3F5001F00F0AC80B3F5C9
:100CF000001F0AD8B3F5C01F25D0B3F5D01F7AD096
:100D0000B3F5B01F00F08980A1E0B3F5181F4ED0F5
:100D1000B3F5201F62D0B3F5101F35D097E0FFF771
:100D200091FAF8609BE0FFF78DFAF8604E4B9B68F4
:100D300003F00F031A46FB68D340FB608FE0FFF718
:100D40005DFAF8608BE04948FFF708FDF86086E03F
:100D50004648FFF703FDF860434B9B6E03F0F0033A
:100D60001B091A46FB68D340FB6078E03F48FFF759
:100D7000F5FCF8603C4B9B6E03F470631B0A1A464B
:100D8000FB68D340FB606AE03848FFF7E7FCF86097
:100D9000354B9B6E03F440531C0B1020FFF736FBC2
:100DA000034623441A46FB68D340FB6057E02F48B4
:100DB000FFF7D4FCF8602C4B9B6E03F440531B0BE5
:100DC0001A46FB68D340FB60274BDB6F03F0070339
:100DD0000133FA68B2FBF3F3FB6040E02348FFF70E
:100DE000BDFCF860204B9B6E03F003031A46FB68C2
:100DF000D340FB6033E01E48FFF7B0FCF8602EE004
:100E00001B48FFF7ABFCF860174B1B6F03F00303A5
:100E10001A46FB68D340FB6021E01548FFF79EFCB3
:100E2000F860114B1B6F03F030031B091A46FB6877
:100E3000D340FB6013E0FFF705FCF8600FE0FFF71D
:100E4000A1FBF8600BE0FFF729FDF86007E0094817
:100E500040F2AA61FFF7A8FA0023FB6000BFFB681D
:100E600018461437BD4690BD00800C4002001800A3
:100E700003001A008C1A000080B584B000AF7860BF
:100E80000123FB737B6803F00F03BB60BB68013B6E
:100E9000062B00F2938001A252F823F0B90E000055
:100EA000EF0E00002B0F0000BD0F0000BD0F000073
:100EB000670F0000890F0000474BDB6A03F4705393
:100EC000B3F5805F09D0B3F5005F03D0B3F5006FD1
:100ED00006D008E00223FB7308E00323FB7305E060
:100EE0000423FB7302E00523FB7300BF6EE03A4B63
:100EF0009B6A03F00303022B06D0032B07D0012BC0
:100F000008D10323FB730FE00223FB730CE00623DD
:100F1000FB7309E0304B9B6A03F48033002B02D053
:100F20000923FB7300E000BF50E02B4B9B6A03F0EA
:100F30000C03082B06D00C2B07D0042B08D103235D
:100F4000FB730FE00223FB730CE00623FB7309E045
:100F5000214B9B6A03F48013002B02D00923FB73FF
:100F600000E000BF32E01C4B1B6803F08053002BF5
:100F700003D0B3F1805F03D028E00723FB7302E0C6
:100F80000823FB7300BF21E0134BDB6A03F46033DB
:100F9000B3F5803F08D0B3F5003F08D0B3F5004F5C
:100FA00008D10823FB7308E00223FB7305E0032349
:100FB000FB7302E00123FB7300BF07E0074840F624
:100FC0005111FFF7F1F90023FB7300BFFB7B1846BB
:100FD0001037BD4680BD00BF00800C408C1A000059
:100FE00090B589B000AF78600B46FB700323FB61BE
:100FF0000323FB7600233B617B6803F00F03FB6058
:10100000FB68013B062B00F2518101A252F823F04C
:101010002D1000003111000031110000AD12000050
:10102000AD120000051200003B120000FB78023BED
:10103000072B58D801A252F823F000BF5D10000022
:101040006710000071100000BB100000E7100000E6
:10105000E7100000E7100000DB1000000423FB6134
:101060000023FB7645E00323FB610123FB7640E090
:101070000223FB610223FB76FFF704FA03465C1CA4
:10108000FFF700FA034620461946FFF73DFAFFF73F
:1010900059F902468B4B9A4206D98B4A8A4B1B68F8
:1010A00043F06003136024E0874A874B1B6823F0FA
:1010B000600343F0200313601BE00123FB61032363
:1010C000FB76FFF7DFF903465C1CFFF7DBF903460D
:1010D00020461946FFF718FA0BE07C4840F6DC1171
:1010E000FFF762F9EAE0794840F6E111FFF75CF9B1
:1010F000E4E0FB7E18460121012200F0EDF8FFF745
:1011000023FB714AFB6953627148FFF7C3FD044634
:10111000FFF7B8F9034620461946FFF7F5F900F046
:10112000B7F9FFF76BF8B860B868FFF7B1FAC3E03A
:10113000FB78013B082B3FD801A252F823F000BFF7
:10114000651100006B1100007B110000B911000057
:10115000B91100008B110000B9110000B911000095
:10116000AF11000000237B612CE00020012101224F
:1011700000F0B2F802237B6124E00120012101226A
:1011800000F0AAF801237B611CE0FFF737F8B86094
:10119000FFF778F90346B8681946FFF7B5F94D48E7
:1011A00004210122FFF706F903237B610AE00023F3
:1011B0007B6101233B6105E0444840F66421FFF771
:1011C000F3F87BE0FB68022B0DD13F493E4B9B6A55
:1011D00023F4803323F003037A691A433B691B0429
:1011E00013438B6268E03849374B9B6A23F48013C2
:1011F00023F00C037A6992001A433B691B051343E1
:101200008B6259E0FB78072B02D0082B07D00DE04A
:101210002D4A2D4B1B6823F0805313600CE02A4AA3
:10122000294B1B6843F08053136005E0274840F6C4
:10123000C421FFF7B9F841E03EE0FB78032B13D05F
:10124000082B21D0022B2AD100200121012200F0FD
:1012500043F81D4B40225A6200BF1B4BDB6A03F46C
:101260008033002BF9D020E001200121012200F081
:1012700033F8154B60225A6200BF134BDB6A03F44C
:101280000033002BF9D010E00F4B20225A6200BF30
:101290000D4BDB6A03F40043002BF9D005E00B484B
:1012A00040F60831FFF780F808E005E0074840F60F
:1012B0000F31FFF779F800BFFFF744F92437BD4637
:1012C00090BD00BF0048E80100800C408C1A00006F
:1012D0000043020040800C4080B586B000AF03465A
:1012E000FB710B46BB7113467B71FB79042B32D823
:1012F00001A252F823F000BF45130000371300008D
:101300001B1300000D1300002913000001233B6193
:101310000223FB6001237B6123E004233B6108235C
:10132000FB6003237B611CE010233B612023FB60F7
:1013300005237B6115E040233B618023FB6007238D
:101340007B610EE04FF480733B614FF40073FB60F0
:1013500009237B6105E0104840F6C451FFF724F8EB
:1013600016E0BB79002B0ED00C4A3B6913627B79E7
:10137000002B0BD000BF0A487969FFF731F803460C
:10138000002BF8D002E0054AFB68136200F080F8F9
:101390001837BD4680BD00BF8C1A000000800C408D
:1013A0002C800C4080B58AB000AF374B03F58053DA
:1013B0001B68BB61344B03F580530C331B68BA695F
:1013C0001340BB61BB69002B04DA304840F22B119B
:1013D000FEF7EAFF2C4B9B6B7B61BA697B6913407C
:1013E0003B620023FB6149E000237B623BE03B6AF8
:1013F00003F00103002B30D0234B9B683B6101229B
:101400007B6A02FA03F3FB601F4B03F5805308333A
:10141000FA681A607B6A1B013A691344DB68BB6097
:10142000BB68002B19D0BB681B7A7B60BB681B7A3A
:1014300083F00103DAB2BB681A72BB681B68002B29
:101440000BD0BB681B68786A7A68002A14BF012237
:101450000022D1B2BA68526898473B6A5B083B6287
:101460007B6A01337B623B6A002BC0D17B69DA4324
:10147000BB6913403B62FB690133FB61FB69012BD4
:10148000B2DD2837BD4680BD00200C40A01A000008
:1014900080B400AF034BDB6A034A1360BD465DF8BE
:1014A000047B704700800C409000002080B582B023
:1014B00000AF03463960FB71FB79002B1FD0FB792D
:1014C000012B19D0FB79022B13D0FB79032B0DD004
:1014D000FB79042B07D0FB79052B02D141F6FF7372
:1014E0000FE000230DE04FF6FF730AE04FF6FF73A5
:1014F00007E04FF6FF7304E04FF6FF7301E04FF68D
:10150000FF733A68134103F00103002B04D10B4829
:1015100040F2C621FEF748FF0949FA793B680120ED
:1015200000FA03F318461346DB0013449B000B44F8
:10153000103358600837BD4680BD00BFB41A0000A4
:101540000060004080B582B000AF03463960FB7197
:10155000FB79002B1FD0FB79012B19D0FB79022BD3
:1015600013D0FB79032B0DD0FB79042B07D0FB792B
:10157000052B02D141F6FF730FE000230DE04FF67B
:10158000FF730AE04FF6FF7307E04FF6FF7304E0C6
:101590004FF6FF7301E04FF6FF733A68134103F013
:1015A0000103002B04D10B4840F2F321FEF7FCFEAF
:1015B0000949FA793B68012000FA03F318461346FB
:1015C000DB0013449B000B44103318600837BD4602
:1015D00080BD00BFB41A00000060004090B585B027
:1015E00000AFB9607B600346FB731346BB73FB7BA4
:1015F000002B1FD0FB7B012B19D0FB7B022B13D0C0
:10160000FB7B032B0DD0FB7B042B07D0FB7B052B37
:1016100002D141F6FF730FE000230DE04FF6FF7398
:101620000AE04FF6FF7307E04FF6FF7304E04FF652
:10163000FF7301E04FF6FF73BA68134103F0010333
:10164000002B04D137484FF48771FEF7ADFEBB7B0A
:10165000002B0DD07B68002B05D0FB7B1846B968AA
:10166000FFF770FF04E0FB7B1846B968FFF71EFF29
:10167000BB68072B1CD82C4CFA7B2B48F97B0B46FC
:10168000DB000B449B0003445B68B9688900084693
:101690000F218140C9430B40B97BB868800081406D
:1016A00019431346DB0013449B002344596024E094
:1016B0001D4CFA7B1C48F97B0B46DB000B449B005E
:1016C000034408331968BB6803F18043083B9B005F
:1016D00018460F238340DB431940B87BBB6803F1F6
:1016E0008043083B9B0000FA03F319431346DB00D9
:1016F00013449B00234408331960BB7B002B0DD19E
:101700007B68002B05D0FB7B1846B968FFF71AFFF2
:1017100004E0FB7B1846B968FFF7C8FE1437BD46E6
:1017200090BD00BF081B00000060004080B584B081
:1017300000AF78607B68002B03D11A484121FEF787
:1017400033FE194B5B69DBB203F00F03DBB29B0086
:10175000FB73154B1B6903F0C0039B09DAB2FB7BDB
:101760001343FB737B68FA7B9A700F4B1B69DBB2E8
:1017700003F03F03DAB27B685A700B4B9B69DBB214
:1017800023F00F03FB73084BDB6903F0F0031B0925
:10179000DAB2FB7B1343FB737B68FA7B1A7010375A
:1017A000BD4680BD1C1B0000D0FF0FE080B500AF20
:1017B000FEF724FD80BD00BF80B500AFFFF7F6FF48
:1017C00011200521FFF70CFC24480221FFF708FC3B
:1017D00023480121FFF704FC22480121FFF7E8F923
:1017E00021480121FFF7E4F920480121FFF7E0F942
:1017F0001F480121FFF7DCF91E480121FFF7D8F946
:101800001D480121FFF7D4F91C480121FFF7D0F949
:101810001B480121FFF7CCF91A480121FFF7C8F94D
:1018200019480121FFF7C4F917484FF40041FFF7A9
:101830005BF816480121FFF7BBF914480121FFF7B7
:1018400053F806480221FFF7CBFB11480121FFF7AF
:10185000AFF910480121FFF7ABF980BD0200180075
:1018600003001A00408104000092040000A204005A
:1018700000430200005204000002050000030200C1
:1018800000C20400700714006016100060062800F3
:101890006026120000D2040080B500AF03200621AC
:1018A00000220023FFF79AFE80BD00BF80B582B002
:1018B00000AF0C4B1B687B603B461846FFF736FFBA
:1018C0007B681B0E0F2B0AD93B78032B07D1064AE6
:1018D000054B1B6823F0500343F0100313600837D7
:1018E000BD4680BDFC81E00FC0800C4080B500AFDC
:1018F000FFF7DCFFFFF760FF022000F037F8FFF78B
:10190000CBFFFEE780B400AF72B6084B1B68B3F1A3
:10191000FF3F04D0054B1B680133044A1360034B9F
:101920001B681846BD465DF8047B70479400002094
:1019300080B483B000AF0C4B1B68002B0DD00A4B5A
:101940001B68013B084A1360074B1B687B607B6880
:10195000002B00D162B67B6800E0002318460C37EC
:10196000BD465DF8047B70479400002080B582B0CE
:1019700000AF7860FFF7C6FF064A7B6852F8233055
:101980005A1C04497B6841F82320FFF7D1FF083730
:10199000BD4680BD9C00002008B5074B044613B12E
:1019A0000021AFF30080054B1868836A03B19847A4
:1019B000204600F033F800BF00000000341B000098
:1019C0000E4B70B51E460E4C0025E41AA410A5421D
:1019D00004D056F8253098470135F8E700F020F894
:1019E000084B094C1E46E41AA4100025A54204D059
:1019F00056F8253098470135F8E770BD680000209B
:101A000068000020680000206C00002003460244AB
:101A1000934202D003F8011BFAE77047FEE700BFCC
:101A2000F8B500BFF8BC08BC9E467047F8B500BFCB
:101A3000F8BC08BC9E467047633A5C73696C696386
:101A40006F6E6C6162735C73696D706C69636974ED
:101A50007973747564696F5C76345C646576656C03
:101A60006F7065725C73646B735C65787833325C3D
:101A700076342E342E305C656D6C69625C696E6301
:101A80005C656D5F636D752E680000002E2E2F65FE
:101A90006D6C69622F656D5F636D752E630000006C
:101AA0002E2E2F656D6C69622F656D5F646D612EE2
:101AB00063000000633A5C73696C69636F6E6C610C
:101AC00062735C73696D706C696369747973747542
:101AD00064696F5C76345C646576656C6F706572A2
:101AE0005C73646B735C65787833325C76342E3467
:101AF0002E305C656D6C69625C696E635C656D5F00
:101B00006770696F2E6800002E2E2F656D6C6962FC
:101B10002F656D5F6770696F2E6300002E2E2F6535
:101B20006D6C69622F656D5F73797374656D2E637B
:0C1B30000043000008000020000000003E
:081B3C0000E6FF7F010000003C
:101B4400006CDC02008000000000000000000000C7
:101B54000000000000000000000000000000000081
:101B64000000000000000000311B00000000000025
:101B74000000000000000000000000000000000061
:101B84000000000000000000000000000000000051
:101B94000000000000000000000000000000000041
:101BA400000000000000000005010000E10000004A
:041BB400000000002D
:04000003000001B147
:00000001FF
